:020000040800F2
:10000000005000209D070008D1040008D904000812
:10001000E1040008E9040008F10400080000000001
:10002000000000000000000000000000F9040008CB
:100030000505000800000000110500081D05000866
:10004000E5070008E5070008E5070008E5070008E0
:10005000E5070008E5070008E5070008E5070008D0
:10006000E5070008E5070008E5070008E5070008C0
:10007000E5070008E5070008E5070008E5070008B0
:10008000E5070008E5070008E5070008E5070008A0
:100090002D050008E5070008E5070008E50700084A
:1000A000E5070008E5070008E5070008E507000880
:1000B000E5070008E5070008E5070008E507000870
:1000C000E5070008E5070008E5070008E507000860
:1000D000E507000841050008E5070008E5070008F6
:1000E000E5070008E5070008E50700080000000034
:1000F0000000000000000000000000000000000000
:0C01000000000000000000005FF808F1A3
:10010C0010B5054C237833B9044B13B10448AFF345
:10011C0000800123237010BD680000200000000047
:10012C00BC46000808B5034B1BB103490348AFF3A9
:10013C00008008BD000000006C000020BC460008D8
:10014C0080B500AF184B194A1A60174B20225A6021
:10015C00154B4FF080429A60134B0022DA60124B21
:10016C004FF450221A61104B4FF480025A610E4B1F
:10017C0000221A760C4B00225A760B4B00229A76F0
:10018C00094B0022DA76084B00221A77064B002224
:10019C005A77054800F084FB0346002B01D000F091
:1001AC0058F900BF80BD00BF8400002000640040EF
:1001BC0080B58AB000AF786007F1140300221A6092
:1001CC005A609A60DA607B681B68294A93424BD16B
:1001DC00284BDB69274A43F00073D361254BDB695D
:1001EC0003F000733B613B69224B9B69214A43F04E
:1001FC00080393611F4B9B6903F00803FB60FB68CA
:10020C004FF480737B610023BB610023FB6107F11A
:10021C0014031946184801F03BFB4FF400737B6143
:10022C000223BB6103233B6207F1140319461248F6
:10023C0001F02EFB114B5B687B627B6A23F4C0439D
:10024C007B627B6A43F0E0637B627B6A43F48043AE
:10025C007B620A4A7B6A536000220021142001F061
:10026C002EFA142001F047FA00BF2837BD4680BD96
:10027C000064004000100240000C014000000140EE
:10028C0080B586B000AF07F1080300221A605A60EF
:10029C009A60DA60184B9B69174A43F00803936124
:1002AC00154B9B6903F008037B607B68124B9B69C1
:1002BC00114A43F0040393610F4B9B6903F0040351
:1002CC003B603B6800224FF480510C4801F064FC09
:1002DC004FF48053BB600123FB6000233B6102237E
:1002EC007B6107F108031946044801F0D1FA00BFFD
:1002FC001837BD4680BD00BF00100240000C014005
:10030C0080B582B000AF00237B6000F067FA00F08C
:10031C005FF8FFF7B5FF00F0BDF9FFF711FF224BB7
:10032C001B68986800230222002103F09FFA1F48E3
:10033C0003F02CFA03F082F803F09CF81C491D48DA
:10034C0000F0A9FB1C4803F021FA1A4800F06CFCE1
:10035C000346002B02D0194803F018FA184803F092
:10036C0015FA0221134800F093FE02F0F9FF15482C
:10037C0003F00CFA03F0CCF802467B6803F5FA7331
:10038C009A420DD3104B1B6801330F4A13600E4B6E
:10039C001B6819460D4803F0F9F903F0B9F87860B9
:1003AC0002F0A6FEE6E700BF18000020D4460008C5
:1003BC005001002084000020EC460008084700088B
:1003CC002447000838470008AC00002044470008C8
:1003DC0080B590B000AF07F1180328220021184611
:1003EC0003F0D0FB3B1D00221A605A609A60DA6061
:1003FC001A610223BB610123BB621023FB6202233F
:10040C007B630023BB634FF46013FB6307F118039A
:10041C00184601F0F3FB0346002B01D000F019F84D
:10042C000F237B600223BB600023FB604FF48063CF
:10043C003B6100237B613B1D0221184601F060FEED
:10044C000346002B01D000F004F800BF4037BD4636
:10045C0080BD80B400AF72B600BF00BFFDE70000E6
:10046C0080B485B000AF154B9B69144A43F001036F
:10047C009361124B9B6903F00103BB60BB680F4B8C
:10048C00DB690E4A43F08053D3610C4BDB6903F0FC
:10049C0080537B607B680A4B5B68FB60FB6823F0D6
:1004AC00E063FB60FB6843F00073FB60044AFB688D
:1004BC00536000BF1437BD4680BC7047001002402B
:1004CC000000014080B400AF00BFFDE780B400AF76
:1004DC0000BFFDE780B400AF00BFFDE780B400AF04
:1004EC0000BFFDE780B400AF00BFFDE780B400AFF4
:1004FC0000BFBD4680BC704780B400AF00BFBD4696
:10050C0080BC704780B400AF00BFBD4680BC704754
:10051C0080B500AF02F0EEFF00F0A6F900BF80BD81
:10052C0080B500AF024800F0D8FD00BF80BD00BF11
:10053C008400002080B500AF024802F06FF800BFC5
:10054C0080BD00BFB400002080B586B000AFF8605D
:10055C00B9607A6000237B610AE0AFF3008001464A
:10056C00BB685A1CBA60CAB21A707B6901337B61D2
:10057C007A697B689A42F0DB7B6818461837BD466F
:10058C0080BD80B586B000AFF860B9607A6000239A
:10059C007B6109E0BB685A1CBA601B78184603F0F3
:1005AC0001F87B6901337B617A697B689A42F1DBE4
:1005BC007B6818461837BD4680BD80B483B000AF49
:1005CC0078604FF0FF3318460C37BD4680BC70473F
:1005DC0080B483B000AF786039603B684FF4005250
:1005EC005A60002318460C37BD4680BC704780B457
:1005FC0083B000AF7860012318460C37BD4680BC31
:10060C00704780B485B000AFF860B9607A600023A1
:10061C0018461437BD4680BC7047000080B586B0C4
:10062C0000AF7860144A154BD31A7B617B693B6130
:10063C00134B1B68002B02D1114B124A1A60104B42
:10064C001A687B6813443A699A4207D203F0E8FAB5
:10065C0003460C221A604FF0FF3309E0084B1B686D
:10066C00FB60074B1A687B681344054A1360FB68F0
:10067C0018461837BD4680BD00500020000400000D
:10068C00B0000020E002002080B400AF00BFBD46E7
:10069C0080BC704780B500AF114B124A1A60104BEA
:1006AC004FF4E1325A600E4B00229A600C4B002240
:1006BC00DA600B4B00221A61094B0C225A61084B71
:1006CC0000229A61064B0022DA61054801F0A6FE71
:1006DC000346002B01D0FFF7BCFE00BF80BD00BF5E
:1006EC00B40000200038014080B588B000AF7860BD
:1006FC0007F1100300221A605A609A60DA607B6876
:10070C001B68204A934239D11F4B9B691E4A43F404
:10071C00804393611C4B9B6903F48043FB60FB6833
:10072C00194B9B69184A43F004039361164B9B6960
:10073C0003F00403BB60BB684FF400733B610223FE
:10074C007B610323FB6107F1100319460F4801F08D
:10075C009FF84FF480633B6100237B610023BB61F6
:10076C0007F110031946094801F092F80022002104
:10077C00252000F0A4FF252000F0BDFF00BF20378E
:10078C00BD4680BD00380140001002400008014009
:10079C00FFF77AFF0B480C490C4A002302E0D458AF
:1007AC00C4500433C4188C42F9D3094A094C0023B1
:1007BC0001E013600432A242FBD303F037FAFFF7D7
:1007CC009FFD70470000002068000020A049000831
:1007DC0068000020E0020020FEE7000080B500AFBA
:1007EC00084B1B68074A43F010031360032000F00A
:1007FC005BFF0F2000F008F8FFF732FE00231846CD
:10080C0080BD00BF0020024080B582B000AF786090
:10081C00124B1A68124B1B7819464FF47A73B3FBC0
:10082C00F1F3B2FBF3F3184600F073FF0346002B11
:10083C0001D001230EE07B680F2B0AD800227968C7
:10084C004FF0FF3000F03BFF064A7B68136000233B
:10085C0000E0012318460837BD4680BD000000208B
:10086C00080000200400002080B400AF054B1B786A
:10087C001A46054B1B681344034A136000BFBD4660
:10088C0080BC704708000020FC00002080B400AF42
:10089C00024B1B681846BD4680BC7047FC0000200C
:1008AC0080B584B000AF78607B68002B01D1012348
:1008BC00EDE07B6893F82030DBB2002B02D1786836
:1008CC00FFF776FC7B681B681A687B681B6842F034
:1008DC0001021A60FFF7DAFFF86012E0FFF7D6FFAB
:1008EC000246FB68D31A0A2B0BD97B685B6A43F46C
:1008FC0000327B685A627B68052283F82020012332
:10090C00C5E07B681B685B6803F00103002BE5D036
:10091C007B681B681A687B681B6822F002021A60ED
:10092C00FFF7B4FFF86012E0FFF7B0FF0246FB6878
:10093C00D31A0A2B0BD97B685B6A43F400327B68B1
:10094C005A627B68052283F8202001239FE07B6894
:10095C001B685B6803F00203002BE5D17B681B7EF0
:10096C00012B08D17B681B681A687B681B6842F0F6
:10097C0080021A6007E07B681B681A687B681B683A
:10098C0022F080021A607B685B7E012B08D17B68A9
:10099C001B681A687B681B6842F040021A6007E00B
:1009AC007B681B681A687B681B6822F040021A601F
:1009BC007B689B7E012B08D17B681B681A687B685F
:1009CC001B6842F020021A6007E07B681B681A68FB
:1009DC007B681B6822F020021A607B68DB7E012B8F
:1009EC0008D17B681B681A687B681B6822F01002B0
:1009FC001A6007E07B681B681A687B681B6842F00A
:100A0C0010021A607B681B7F012B08D17B681B6866
:100A1C001A687B681B6842F008021A6007E07B6862
:100A2C001B681A687B681B6822F008021A607B68D6
:100A3C005B7F012B08D17B681B681A687B681B687D
:100A4C0042F004021A6007E07B681B681A687B6836
:100A5C001B6822F004021A607B689A687B68DB686A
:100A6C001A437B681B691A437B685B6942EA030182
:100A7C007B685B685A1E7B681B680A43DA617B687B
:100A8C0000225A627B68012283F82020002318463A
:100A9C001037BD4680BD80B487B000AF7860396038
:100AAC007B681B687B617B6893F82030FB74FB7C54
:100ABC00012B03D0FB7C022B40F0AA807B69D3F87E
:100ACC00003243F001027B69C3F800223B685B698A
:100ADC0003F01F03012202FA03F3FB607B69D3F8D6
:100AEC001C22FB68DB431A407B69C3F81C223B6861
:100AFC00DB69002B23D17B69D3F80C22FB68DB4329
:100B0C001A407B69C3F80C223B68DB6819043B680C
:100B1C005B689BB23A68526919437B69483243F867
:100B2C0032103B689B6819043B681B689AB23B689F
:100B3C005B690A4379694833DB000B445A603B68B4
:100B4C00DB69012B22D17B69D3F80C22FB681A4399
:100B5C007B69C3F80C223B681B6819043B685B6813
:100B6C009BB23A68526919437B69483243F8321098
:100B7C003B689B6819043B68DB689AB23B685B690D
:100B8C000A4379694833DB000B445A603B689B6924
:100B9C00002B09D17B69D3F80422FB68DB431A4094
:100BAC007B69C3F8042207E07B69D3F80422FB6855
:100BBC001A437B69C3F804223B681B69002B09D1DB
:100BCC007B69D3F81422FB68DB431A407B69C3F8BA
:100BDC00142207E07B69D3F81422FB681A437B6963
:100BEC00C3F814223B681B6A012B07D17B69D3F82D
:100BFC001C22FB681A437B69C3F81C227B69D3F85F
:100C0C00003223F001027B69C3F80022002306E0C6
:100C1C007B685B6A43F480227B685A620123184626
:100C2C001C37BD4680BC704780B584B000AF78607F
:100C3C007B6893F82030DBB2012B2ED17B6802222B
:100C4C0083F820207B681B681A687B681B6822F07D
:100C5C0001021A60FFF71AFEF86012E0FFF716FEA9
:100C6C000246FB68D31A0A2B0BD97B685B6A43F4E8
:100C7C0000327B685A627B68052283F820200123AE
:100C8C0012E07B681B685B6803F00103002BE5D165
:100C9C007B6800225A62002306E07B685B6A43F49F
:100CAC0000227B685A62012318461037BD4680BD6E
:100CBC0080B489B000AFF860B9607A603B60FB68C3
:100CCC0093F82030FB77FB681B689B68BB61FB7F4C
:100CDC00012B03D0FB7F022B40F0AD80BB6903F0EE
:100CEC008063002B0AD1BB6903F00063002B05D194
:100CFC00BB6903F08053002B00F09580BB691B0E81
:100D0C0003F003037B6101227B699A403B681A6004
:100D1C00BB689B68002B0DD1BB681B685A05BB6870
:100D2C00DB68F96809681A437B6918331B010B44AB
:100D3C001A600FE0BB685B68DA00BB689B681A43FB
:100D4C00BB68DB68F96809681A437B6918331B01B7
:100D5C000B441A60FB681968BB681A697B69183305
:100D6C001B010B4404331A60BB681B7D012B11D192
:100D7C00FB681A687B6918331B01134404331B6826
:100D8C00FA68116843F480727B6918331B010B44B9
:100D9C0004331A607B6807331B781A067B680633AA
:100DAC001B781B041A437B6805331B781B02134307
:100DBC007A68043212781046FA68116843EA000225
:100DCC007B691B010B4403F5C6731A607B68033304
:100DDC001B781A067B6802331B781B041A437B684A
:100DEC0001331B781B0213437A6812781046FA6899
:100DFC00116843EA00027B691B010B4403F5C473C1
:100E0C001A60FB681A687B6918331B0113441B6852
:100E1C00FA68116843F001027B6918331B010B441B
:100E2C001A6000230EE0FB685B6A43F40012FB6857
:100E3C005A62012306E0FB685B6A43F48022FB687C
:100E4C005A62012318462437BD4680BC704780B4D3
:100E5C0087B000AFF860B9607A603B60FB6893F8CC
:100E6C002030FB75FB7D012B03D0FB7D022B40F06A
:100E7C000381BB68002B0ED1FB681B68DB6803F099
:100E8C000303002B16D1FB685B6A43F40012FB686A
:100E9C005A620123F7E0FB681B681B6903F003032C
:100EAC00002B07D1FB685B6A43F40012FB685A62A3
:100EBC000123E8E0FB681A68BB681B331B01134471
:100ECC001B6803F004027B689A607B689B68002BAC
:100EDC000CD1FB681A68BB681B331B0113441B68DD
:100EEC005B0DC3F30A027B681A600BE0FB681A689F
:100EFC00BB681B331B0113441B68DB0823F06042E7
:100F0C007B685A60FB681A68BB681B331B0113446F
:100F1C001B6803F002027B68DA60FB681A68BB6826
:100F2C001B331B01134404331B6803F00803002B11
:100F3C0003D07B6808221A610BE0FB681A68BB6857
:100F4C001B331B01134404331B6803F00F027B6833
:100F5C001A61FB681A68BB681B331B01134404330A
:100F6C001B681B0ADAB27B689A61FB681A68BB685B
:100F7C001B331B01134404331B681B0C9AB27B6894
:100F8C005A61FB681A68BB681B01134403F5DC73D8
:100F9C001B68DAB23B681A70FB681A68BB681B01E5
:100FAC00134403F5DC731B681A0A3B680133D2B295
:100FBC001A70FB681A68BB681B01134403F5DC73D9
:100FCC001B681A0C3B680233D2B21A70FB681A68A1
:100FDC00BB681B01134403F5DC731B681A0E3B68DA
:100FEC000333D2B21A70FB681A68BB681B01134436
:100FFC0003F5DE731A683B680433D2B21A70FB68CF
:10100C001A68BB681B01134403F5DE731B681A0ACC
:10101C003B680533D2B21A70FB681A68BB681B01B7
:10102C00134403F5DE731B681A0C3B680633D2B20B
:10103C001A70FB681A68BB681B01134403F5DE7356
:10104C001B681A0E3B680733D2B21A70BB68002BB0
:10105C0008D1FB681B68DA68FB681B6842F0200249
:10106C00DA6007E0FB681B681A69FB681B6842F0D2
:10107C0020021A61002306E0FB685B6A43F48022BD
:10108C00FB685A62012318461C37BD4680BC70476A
:10109C0080B485B000AF786039607B6893F82030FD
:1010AC00FB73FB7B012B02D0FB7B022B09D17B68F2
:1010BC001B6859697B681B683A680A435A610023AC
:1010CC0006E07B685B6A43F480227B685A620123EA
:1010DC0018461437BD4680BC704780B58AB000AF47
:1010EC00786000237B627B681B685B693B627B6872
:1010FC001B685B68FB617B681B689B68BB617B68DA
:10110C001B68DB687B617B681B681B693B617B68C8
:10111C001B689B69FB603B6A03F00103002B7CD0CE
:10112C00BB6903F00103002B23D07B681B680122F1
:10113C009A60BB6903F00203002B03D0786800F0BF
:10114C0083F916E0BB6903F00403002B04D07B6A1F
:10115C0043F400637B620CE0BB6903F00803002BD3
:10116C0004D07B6A43F480537B6202E0786800F021
:10117C0086F9BB6903F48073002B24D07B681B6851
:10118C004FF480729A60BB6903F40073002B03D098
:10119C00786800F062F916E0BB6903F48063002BF9
:1011AC0004D07B6A43F400537B620CE0BB6903F40C
:1011BC000063002B04D07B6A43F480437B6202E023
:1011CC00786800F065F9BB6903F48033002B24D0F8
:1011DC007B681B684FF480329A60BB6903F4003360
:1011EC00002B03D0786800F041F916E0BB6903F4DA
:1011FC008023002B04D07B6A43F400437B620CE019
:10120C00BB6903F40023002B04D07B6A43F48033C6
:10121C007B6202E0786800F044F93B6A03F0080353
:10122C00002B0CD07B6903F01003002B07D07B6ADA
:10123C0043F400737B627B681B681022DA603B6AA4
:10124C0003F00403002B0BD07B6903F00803002B85
:10125C0006D07B681B680822DA60786800F02AF9EF
:10126C003B6A03F00203002B09D07B681B68DB6828
:10127C0003F00303002B02D0786802F095F83B6A68
:10128C0003F04003002B0CD03B6903F01003002B40
:10129C0007D07B6A43F480637B627B681B681022F7
:1012AC001A613B6A03F02003002B0BD03B6903F05F
:1012BC000803002B06D07B681B6808221A6178682B
:1012CC0000F001F93B6A03F01003002B09D07B6896
:1012DC001B681B6903F00303002B02D0786802F033
:1012EC0087F83B6A03F40033002B0BD0FB6903F047
:1012FC001003002B06D07B681B6810225A6078689C
:10130C0000F0EAF83B6A03F48033002B0BD0FB6946
:10131C0003F00803002B06D07B681B6808225A6078
:10132C00786800F0E2F83B6A03F40043002B7BD0B2
:10133C00FB6903F00403002B72D03B6A03F4807347
:10134C00002B08D0FB6803F00103002B03D07B6A51
:10135C0043F001037B623B6A03F40073002B08D05B
:10136C00FB6803F00203002B03D07B6A43F00203FB
:10137C007B623B6A03F48063002B08D0FB6803F0AC
:10138C000403002B03D07B6A43F004037B623B6AAB
:10139C0003F40063002B43D0FB6803F07003002BB5
:1013AC003ED0FB6803F07003602B2BD0602B2ED843
:1013BC00502B22D0502B2AD8402B19D0402B26D87A
:1013CC00302B10D0302B22D8102B02D0202B05D054
:1013DC001DE07B6A43F008037B6219E07B6A43F0F3
:1013EC0010037B6214E07B6A43F020037B620FE006
:1013FC007B6A43F040037B620AE07B6A43F0800324
:10140C007B6205E07B6A43F480737B6200E000BF83
:10141C007B681B689A697B681B6822F070029A6172
:10142C007B681B6804225A607B6A002B08D07B689F
:10143C005A6A7B6A1A437B685A62786800F05EF8D5
:10144C0000BF2837BD4680BD80B483B000AF786044
:10145C0000BF0C37BD4680BC704780B483B000AF72
:10146C00786000BF0C37BD4680BC704780B483B039
:10147C0000AF786000BF0C37BD4680BC704780B4AD
:10148C0083B000AF786000BF0C37BD4680BC70479E
:10149C0080B483B000AF786000BF0C37BD4680BC11
:1014AC00704780B483B000AF786000BF0C37BD4686
:1014BC0080BC704780B483B000AF786000BF0C373D
:1014CC00BD4680BC704780B483B000AF786000BF6D
:1014DC000C37BD4680BC704780B483B000AF7860D9
:1014EC0000BF0C37BD4680BC704780B483B000AFE2
:1014FC00786000BF0C37BD4680BC704780B483B0A9
:10150C0000AF786000BF0C37BD4680BC7047000050
:10151C0080B485B000AF78607B6803F00703FB6094
:10152C000C4BDB68BB60BA684FF6FF031340BB6023
:10153C00FB681A02BB68134343F0BF6343F40033E8
:10154C00BB60044ABB68D36000BF1437BD4680BC87
:10155C00704700BF00ED00E080B400AF044BDB68C7
:10156C001B0A03F007031846BD4680BC704700BF3A
:10157C0000ED00E080B483B000AF0346FB7197F937
:10158C000730002B0BDBFB7903F01F02064997F9A0
:10159C0007305B09012000FA02F241F8232000BF5A
:1015AC000C37BD4680BC704700E100E080B483B0CE
:1015BC0000AF03463960FB7197F90730002B0ADB4B
:1015CC003B68DAB20C4997F907301201D2B20B44DE
:1015DC0083F800230AE03B68DAB20849FB7903F090
:1015EC000F03043B1201D2B20B441A7600BF0C3726
:1015FC00BD4680BC704700BF00E100E000ED00E09C
:10160C0080B489B000AFF860B9607A60FB6803F011
:10161C000703FB61FB69C3F10703042B28BF0423F9
:10162C00BB61FB690433062B02D9FB69033B00E069
:10163C0000237B614FF0FF32BB6902FA03F3DA43FC
:10164C00BB681A407B699A404FF0FF317B6901FA05
:10165C0003F3D9437B680B40134318462437BD462C
:10166C0080BC704780B582B000AF78607B68013B6E
:10167C00B3F1807F01D301230FE00A4A7B68013B61
:10168C0053600F214FF0FF30FFF790FF054B002206
:10169C009A60044B07221A60002318460837BD468F
:1016AC0080BD00BF10E000E080B582B000AF786074
:1016BC007868FFF72DFF00BF0837BD4680BD80B5A9
:1016CC0086B000AF0346B9607A60FB7300237B6180
:1016DC00FFF742FF78617A68B9687869FFF790FF85
:1016EC00024697F90F3011461846FFF75FFF00BF0F
:1016FC001837BD4680BD80B582B000AF0346FB7184
:10170C0097F907301846FFF735FF00BF0837BD467D
:10171C0080BD80B582B000AF78607868FFF7A2FF1B
:10172C00034618460837BD4680BD80B485B000AF6F
:10173C0078600023FB737B6893F82130DBB2022BBB
:10174C0008D07B6804229A637B68002283F82020EF
:10175C00012320E07B681B681A687B681B6822F0F9
:10176C000E021A607B681B681A687B681B6822F083
:10177C0001021A607B681A6C7B68DB6B012101FA31
:10178C0002F25A607B68012283F821207B680022D8
:10179C0083F82020FB7B18461437BD4680BC70476D
:1017AC0080B584B000AF78600023FB737B6893F83E
:1017BC002130DBB2022B05D07B6804229A63012313
:1017CC00FB7351E07B681B681A687B681B6822F00E
:1017DC000E021A607B681B681A687B681B6822F013
:1017EC0001021A607B681B68224A934229D07B68ED
:1017FC001B68214A934222D07B681B681F4A934284
:10180C001AD07B681B681E4A934212D07B681B68F7
:10181C001C4A93420AD07B681B681B4A934202D134
:10182C004FF480130EE04FF080730BE04FF48033D5
:10183C0008E04FF4805305E04FF4807302E010236E
:10184C0000E00123114A53607B68012283F82120B8
:10185C007B68002283F820207B685B6B002B03D015
:10186C007B685B6B78689847FB7B18461037BD46E6
:10187C0080BD00BF080002401C0002403000024046
:10188C0044000240580002406C000240000002403C
:10189C0080B48BB000AF7860396000237B6200238A
:1018AC003B6269E101227B6A02FA03F3FB613B684C
:1018BC001B68FA691340BB61BA69FB699A4240F034
:1018CC0058813B685B689A4A93425ED0984A93422F
:1018DC0075D8984A934258D0964A93426FD8964AF4
:1018EC00934252D0944A934269D8944A93424CD032
:1018FC00924A934263D8924A934246D0904A93427A
:10190C005DD8122B2AD8122B59D801A252F823F0E9
:10191C00971900087119000883190008C5190008E7
:10192C00CB190008CB190008CB190008CB190008FB
:10193C00CB190008CB190008CB190008CB190008EB
:10194C00CB190008CB190008CB190008CB190008DB
:10195C00CB190008791900088D190008794A9342AF
:10196C0013D02CE03B68DB683B6229E03B68DB680A
:10197C0004333B6224E03B68DB6808333B621FE0C6
:10198C003B68DB680C333B621AE03B689B68002BBE
:10199C0002D104233B6213E03B689B68012B05D109
:1019AC0008233B627B68FA691A6109E008233B62F1
:1019BC007B68FA695A6103E000233B6200E000BFD8
:1019CC00BB69FF2B01D87B6801E07B6804337B612A
:1019DC00BB69FF2B02D87B6A9B0002E07B6A083B49
:1019EC009B003B617B691A680F213B6901FA03F389
:1019FC00DB431A40396A3B6901FA03F31A437B69EA
:101A0C001A603B685B6803F08053002B00F0B180D8
:101A1C004D4B9B694C4A43F0010393614A4B9B69C4
:101A2C0003F00103BB60BB68484A7B6A9B08023326
:101A3C0052F82330FB607B6A03F003039B000F22F8
:101A4C0002FA03F3DB43FA681340FB607B68404AFD
:101A5C00934213D07B683F4A93420DD07B683E4A39
:101A6C00934207D07B683D4A934201D1032306E0A1
:101A7C00042304E0022302E0012300E000237A6A3D
:101A8C0002F0030292009340FA681343FB602F4963
:101A9C007B6A9B080233FA6841F823203B685B6839
:101AAC0003F48013002B06D02D4B9A682C49BB698C
:101ABC0013438B6006E02A4B9A68BB69DB432849C9
:101ACC0013408B603B685B6803F40013002B06D05B
:101ADC00234BDA682249BB691343CB6006E0204BE9
:101AEC00DA68BB69DB431E491340CB603B685B681B
:101AFC0003F40033002B06D0194B5A681849BB6904
:101B0C0013434B6006E0164B5A68BB69DB43144920
:101B1C0013404B603B685B6803F48033002B21D08F
:101B2C000F4B1A680E49BB6913430B6021E000BFD1
:101B3C0000003210000031100000221000002110B3
:101B4C0000001210000011100010024000000140B3
:101B5C0000080140000C014000100140001401403D
:101B6C00000401400B4B1A68BB69DB430949134065
:101B7C000B607B6A01337B623B681A687B6A22FAD2
:101B8C0003F3002B7FF48EAE00BF00BF2C37BD4695
:101B9C0080BC70470004014080B483B000AF786013
:101BAC000B467B8013467B707B78002B03D07A88A6
:101BBC007B681A6103E07B881A047B681A6100BF9A
:101BCC000C37BD4680BC704780B485B000AF7860E0
:101BDC000B467B807B68DB68FB607A88FB68134074
:101BEC001A04FB68D9437B880B401A437B681A6143
:101BFC0000BF1437BD4680BC7047000080B586B06E
:101C0C0000AF78607B68002B01D1012372E27B6806
:101C1C001B6803F00103002B00F08780924B5B687C
:101C2C0003F00C03042B0CD08F4B5B6803F00C03FC
:101C3C00082B12D18C4B5B6803F48033B3F5803FD7
:101C4C000BD1894B1B6803F40033002B6CD07B68E1
:101C5C005B68002B68D101234CE27B685B68B3F5B1
:101C6C00803F06D1804B1B687F4A43F4803313605E
:101C7C002EE07B685B68002B0CD17B4B1B687A4A8F
:101C8C0023F480331360784B1B68774A23F480234A
:101C9C0013601DE07B685B68B3F5A02F0CD1724B11
:101CAC001B68714A43F4802313606F4B1B686E4AA8
:101CBC0043F4803313600BE06B4B1B686A4A23F4CC
:101CCC0080331360684B1B68674A23F480231360CE
:101CDC007B685B68002B13D0FEF7D8FD386108E0F9
:101CEC00FEF7D4FD02463B69D31A642B01D90323BA
:101CFC0000E25D4B1B6803F40033002BF0D014E0C2
:101D0C00FEF7C4FD386108E0FEF7C0FD02463B69F2
:101D1C00D31A642B01D90323ECE1534B1B6803F456
:101D2C000033002BF0D100E000BF7B681B6803F090
:101D3C000203002B63D04C4B5B6803F00C03002BAD
:101D4C000BD0494B5B6803F00C03082B1CD1464BA2
:101D5C005B6803F48033002B16D1434B1B6803F0F4
:101D6C000203002B05D07B681B69012B01D00123DA
:101D7C00C0E13D4B1B6823F0F8027B685B69DB001C
:101D8C00394913430B603AE07B681B69002B20D068
:101D9C00364B01221A60FEF779FD386108E0FEF738
:101DAC0075FD02463B69D31A022B01D90323A1E12D
:101DBC002D4B1B6803F00203002BF0D02A4B1B6841
:101DCC0023F0F8027B685B69DB00274913430B6047
:101DDC0015E0264B00221A60FEF758FD386108E02A
:101DEC00FEF754FD02463B69D31A022B01D903239B
:101DFC0080E11D4B1B6803F00203002BF0D17B68C4
:101E0C001B6803F00803002B3AD07B689B69002BFE
:101E1C0019D0174B01221A60FEF738FD386108E023
:101E2C00FEF734FD02463B69D31A022B01D903237A
:101E3C0060E10D4B5B6A03F00203002BF0D0012034
:101E4C0000F0CEFA1CE00A4B00221A60FEF71EFDD1
:101E5C0038610FE0FEF71AFD02463B69D31A022BDC
:101E6C0008D9032346E100BF0010024000004242A3
:101E7C0080044242924B5B6A03F00203002BE9D1CF
:101E8C007B681B6803F00403002B00F0A680002382
:101E9C00FB758B4BDB6903F08053002B0DD1884B0A
:101EAC00DB69874A43F08053D361854BDB6903F0D0
:101EBC008053BB60BB680123FB75824B1B6803F42A
:101ECC008073002B18D17F4B1B687E4A43F48073C0
:101EDC001360FEF7DBFC386108E0FEF7D7FC024626
:101EEC003B69D31A642B01D9032303E1754B1B689F
:101EFC0003F48073002BF0D07B68DB68012B06D1D8
:101F0C006F4B1B6A6E4A43F0010313622DE07B6832
:101F1C00DB68002B0CD16A4B1B6A694A23F0010366
:101F2C001362674B1B6A664A23F0040313621CE0BE
:101F3C007B68DB68052B0CD1614B1B6A604A43F054
:101F4C00040313625E4B1B6A5D4A43F00103136288
:101F5C000BE05B4B1B6A5A4A23F001031362584B8C
:101F6C001B6A574A23F0040313627B68DB68002B5F
:101F7C0015D0FEF78BFC38610AE0FEF787FC0246B1
:101F8C003B69D31A41F28832934201D90323B1E061
:101F9C004B4B1B6A03F00203002BEED014E0FEF750
:101FAC0075FC38610AE0FEF771FC02463B69D31AF6
:101FBC0041F28832934201D903239BE0404B1B6AC8
:101FCC0003F00203002BEED1FB7D012B05D13C4B22
:101FDC00DB693B4A23F08053D3617B68DB69002BC0
:101FEC0000F08780364B5B6803F00C03082B61D044
:101FFC007B68DB69022B46D1334B00221A60FEF75B
:10200C0045FC386108E0FEF741FC02463B69D31AF7
:10201C00022B01D903236DE0294B1B6803F00073DD
:10202C00002BF0D17B681B6AB3F5803F08D1244BA1
:10203C005B6823F400327B689B68214913434B6037
:10204C001F4B5B6823F474127B68196A7B685B6AAC
:10205C000B431B4913434B601B4B01221A60FEF7C9
:10206C0015FC386108E0FEF711FC02463B69D31AF7
:10207C00022B01D903233DE0114B1B6803F00073C5
:10208C00002BF0D035E0104B00221A60FEF7FEFB5F
:10209C00386108E0FEF7FAFB02463B69D31A022BC3
:1020AC0001D9032326E0064B1B6803F00073002BB9
:1020BC00F0D11EE07B68DB69012B07D1012319E00D
:1020CC000010024000700040600042420B4B5B6805
:1020DC00FB60FB6803F480327B681B6A9A4206D172
:1020EC00FB6803F470127B685B6A9A4201D001238F
:1020FC0000E0002318461837BD4680BD0010024092
:10210C0080B584B000AF786039607B68002B01D15A
:10211C000123D0E06A4B1B6803F007033A689A422C
:10212C0010D9674B1B6823F0070265493B681343C2
:10213C000B60634B1B6803F007033A689A4201D0AB
:10214C000123B8E07B681B6803F00203002B20D04E
:10215C007B681B6803F00403002B05D0594B5B68AC
:10216C00584A43F4E06353607B681B6803F0080330
:10217C00002B05D0534B5B68524A43F460535360B9
:10218C00504B5B6823F0F0027B689B684D4913430E
:10219C004B607B681B6803F00103002B40D07B680D
:1021AC005B68012B07D1474B1B6803F40033002BF2
:1021BC0015D101237FE07B685B68022B07D1414B73
:1021CC001B6803F00073002B09D1012373E03D4B16
:1021DC001B6803F00203002B01D101236BE0394B88
:1021EC005B6823F003027B685B68364913434B60E2
:1021FC00FEF74CFBF8600AE0FEF748FB0246FB6872
:10220C00D31A41F28832934201D9032353E02D4B68
:10221C005B6803F00C027B685B689B009A42EBD115
:10222C00274B1B6803F007033A689A4210D2244BE1
:10223C001B6823F0070222493B6813430B60204BB9
:10224C001B6803F007033A689A4201D0012332E07D
:10225C007B681B6803F00403002B08D0194B5B68E8
:10226C0023F4E0627B68DB68164913434B607B68A0
:10227C001B6803F00803002B09D0124B5B6823F496
:10228C0060527B681B69DB000E4913434B6000F006
:10229C0021F802460B4B5B681B0903F00F030A493C
:1022AC00CB5C22FA03F3094A1360094B1B681846EE
:1022BC00FEF7AAFA002318461037BD4680BD00BFB2
:1022CC0000200240001002403849000800000020A5
:1022DC000400002080B487B000AF0023FB60002313
:1022EC00BB6000237B6100237B6000233B611E4BA2
:1022FC005B68FB60FB6803F00C03042B02D0082B1B
:10230C0003D027E0194B3B6127E0FB689B0C03F0E3
:10231C000F03174AD35C7B60FB6803F48033002BFC
:10232C0010D0114B5B685B0C03F00103114AD35CBA
:10233C00BB607B680D4A03FB02F2BB68B2FBF3F394
:10234C007B6104E07B680C4A02FB03F37B617B69D5
:10235C003B6102E0054B3B6100BF3B6918461C37F3
:10236C00BD4680BC704700BF0010024000127A00CE
:10237C00504900086049000800093D0080B400AFD6
:10238C00024B1B681846BD4680BC704700000020FD
:10239C0080B500AFFFF7F2FF0246054B5B681B0AE6
:1023AC0003F007030349CB5C22FA03F3184680BD04
:1023BC00001002404849000880B500AFFFF7DEFF6F
:1023CC000246054B5B68DB0A03F007030349CB5C51
:1023DC0022FA03F3184680BD001002404849000859
:1023EC0080B485B000AF78600A4B1B680A4AA2FB28
:1023FC0003235B0A7A6802FB03F3FB6000BFFB68F4
:10240C005A1EFA60002BF9D100BF00BF1437BD462D
:10241C0080BC704700000020D34D621080B582B0A4
:10242C0000AF78607B68002B01D1012342E07B6810
:10243C0093F84130DBB2002B06D17B68002283F885
:10244C0040207868FEF750F97B68242283F84120FD
:10245C007B681B68DA687B681B6822F40052DA60C0
:10246C00786800F0B7FD7B681B681A697B681B688D
:10247C0022F490421A617B681B685A697B681B685E
:10248C0022F02A025A617B681B68DA687B681B6839
:10249C0042F40052DA607B6800225A647B68202286
:1024AC0083F841207B68202283F842207B6800223D
:1024BC005A63002318460837BD4680BD80B58AB0E4
:1024CC0002AFF860B9603B601346FB8000237B6170
:1024DC00FB6893F84130DBB2202B75D1BB68002B25
:1024EC0002D0FB88002B01D101236EE0FB68002297
:1024FC005A64FB68212283F84120FEF7C7F9786102
:10250C00FB68FA889A84FB68FA88DA84FB689B6813
:10251C00B3F5805F08D1FB681B69002B04D1002345
:10252C00FB61BB68BB6103E0BB68FB610023BB6163
:10253C002EE03B6800937B6900228021F86800F054
:10254C001CFB0346002B05D0FB68202283F841209E
:10255C0003233AE0FB69002B0BD1BB691B881A469D
:10256C00FB681B68C2F308025A60BB690233BB618B
:10257C0007E0FB691A78FB681B685A60FB6901333A
:10258C00FB61FB68DB8C9BB2013B9AB2FB68DA8483
:10259C00FB68DB8C9BB2002BCBD13B6800937B6937
:1025AC0000224021F86800F0E8FA0346002B05D021
:1025BC00FB68202283F84120032306E0FB682022DD
:1025CC0083F84120002300E0022318462037BD4643
:1025DC0080BD80B584B000AFF860B9601346FB8055
:1025EC00FB6893F84230DBB2202B12D1BB68002B76
:1025FC0002D0FB88002B01D101230BE0FB680022E9
:10260C001A63FB881A46B968F86800F00FFB03469A
:10261C0000E0022318461037BD4680BD80B5BAB025
:10262C0000AF78607B681B681B68C7F8E4307B6878
:10263C001B68DB68C7F8E0307B681B685B69C7F810
:10264C00DC300023C7F8D8300023C7F8D430D7F8D3
:10265C00E43003F00F03C7F8D830D7F8D830002B8C
:10266C000FD1D7F8E43003F02003002B09D0D7F8B2
:10267C00E03003F02003002B03D0786800F0ECFB73
:10268C005BE2D7F8D830002B00F0DE80D7F8DC30D6
:10269C0003F00103002B06D1D7F8E03003F490735C
:1026AC00002B00F0D180D7F8E43003F00103002BAD
:1026BC000BD0D7F8E03003F48073002B05D07B6887
:1026CC005B6C43F001027B685A64D7F8E43003F08A
:1026DC000403002B0BD0D7F8DC3003F00103002BE4
:1026EC0005D07B685B6C43F002027B685A64D7F8B8
:1026FC00E43003F00203002B0BD0D7F8DC3003F0EE
:10270C000103002B05D07B685B6C43F004027B68F3
:10271C005A64D7F8E43003F00803002B11D0D7F833
:10272C00E03003F02003002B05D1D7F8DC3003F0A8
:10273C000103002B05D07B685B6C43F008027B68BF
:10274C005A647B685B6C002B00F0F281D7F8E430A4
:10275C0003F02003002B08D0D7F8E03003F020035F
:10276C00002B02D0786800F077FB7B681B685B69F4
:10277C0003F04003002B14BF01230023DBB2C7F886
:10278C00D4307B685B6C03F00803002B03D1D7F8C3
:10279C00D430002B4FD0786800F081FA7B681B682E
:1027AC005B6903F04003002B41D07B681B6814333A
:1027BC00C7F89C30D7F89C3053E8003FC7F89830E6
:1027CC00D7F8983023F04003C7F8D0307B681B68EB
:1027DC001433D7F8D020C7F8A820C7F8A430D7F8FE
:1027EC00A410D7F8A82041E80023C7F8A030D7F8E8
:1027FC00A030002BD9D17B68DB6B002B13D07B680E
:10280C00DB6B7E4A5A637B68DB6B1846FEF7C8FFAE
:10281C000346002B16D07B68DB6B5B6B7A68D26B44
:10282C00104698470EE0786800F093F90AE0786853
:10283C0000F08FF906E0786800F08BF97B680022D5
:10284C005A6475E100BF73E17B681B6B012B40F090
:10285C004F81D7F8E43003F01003002B00F04881CF
:10286C00D7F8E03003F01003002B00F04181002377
:10287C00BB607B681B681B68BB607B681B685B6804
:10288C00BB60BB687B681B685B6903F04003002B73
:10289C0000F0B6807B68DB6B1B685B68A7F8BE300A
:1028AC00B7F8BE30002B00F045817B689B8DB7F8E4
:1028BC00BE209A4280F03E817B68B7F8BE20DA8554
:1028CC007B68DB6B9B69202B00F088807B681B6826
:1028DC000C33C7F88830D7F8883053E8003FC7F876
:1028EC008430D7F8843023F48073C7F8B8307B6811
:1028FC001B680C33D7F8B820C7F89420C7F8903071
:10290C00D7F89010D7F8942041E80023C7F88C3002
:10291C00D7F88C30002BD9D17B681B6814337B67BC
:10292C007B6F53E8003F3B673B6F23F00103C7F815
:10293C00B4307B681B681433D7F8B420C7F88020F8
:10294C00FB67F96FD7F8802041E80023BB67BB6FAA
:10295C00002BE1D17B681B6814333B663B6E53E85C
:10296C00003FFB65FB6D23F04003C7F8B0307B687C
:10297C001B681433D7F8B020FA66BB66B96EFA6ED2
:10298C0041E800237B667B6E002BE3D17B68202221
:10299C0083F842207B6800221A637B681B680C3327
:1029AC00FB64FB6C53E8003FBB64BB6C23F010036F
:1029BC00C7F8AC307B681B680C33D7F8AC20BA6511
:1029CC007B65796DBA6D41E800233B653B6D002B4F
:1029DC00E3D17B68DB6B1846FEF7A7FE7B6802220F
:1029EC005A637B689A8D7B68DB8D9BB2D31A9BB242
:1029FC001946786800F0B6F89CE000BF6F2D00080F
:102A0C007B689A8D7B68DB8D9BB2D31AA7F8CE308E
:102A1C007B68DB8D9BB2002B00F08E80B7F8CE303C
:102A2C00002B00F089807B681B680C33BB63BB6B8D
:102A3C0053E8003F7B637B6B23F49073C7F8C8307B
:102A4C007B681B680C33D7F8C8207A643B64396CFC
:102A5C007A6C41E80023FB63FB6B002BE3D17B68B2
:102A6C001B6814337B627B6A53E8003F3B623B6A12
:102A7C0023F00103C7F8C4307B681B681433D7F804
:102A8C00C4203A63FB62F96A3A6B41E80023BB62EB
:102A9C00BB6A002BE3D17B68202283F842207B6841
:102AAC0000221A637B681B680C333B613B6953E85B
:102ABC00003FFB60FB6823F01003C7F8C0307B6855
:102ACC001B680C33D7F8C020FA61BB61B969FA698D
:102ADC0041E800237B617B69002BE3D17B680222F8
:102AEC005A63B7F8CE301946786800F03BF823E00B
:102AFC00D7F8E43003F08003002B09D0D7F8E0308E
:102B0C0003F08003002B03D0786800F03EF914E04A
:102B1C00D7F8E43003F04003002B0ED0D7F8E030A8
:102B2C0003F04003002B08D0786800F07DF904E036
:102B3C0000BF02E000BF00E000BFE837BD4680BD2B
:102B4C0080B483B000AF786000BF0C37BD4680BC4A
:102B5C00704780B483B000AF786000BF0C37BD46BF
:102B6C0080BC704780B483B000AF78600B467B802C
:102B7C0000BF0C37BD4680BC704780B586B000AF37
:102B8C00F860B9603B601346FB713BE03B6AB3F104
:102B9C00FF3F37D0FDF77AFE02463B68D31A3A6AFC
:102BAC009A4202D33B6A002B01D103233AE0FB6823
:102BBC001B68DB6803F00403002B23D0BB68802B5D
:102BCC0020D0BB68402B1DD0FB681B681B6803F032
:102BDC000803082B16D100237B61FB681B681B685C
:102BEC007B61FB681B685B687B617B69F86800F044
:102BFC0056F8FB6808225A64FB68002283F84020D0
:102C0C0001230FE0FB681B681A68BB681340BA68A5
:102C1C009A420CBF01230023DBB21A46FB799A427D
:102C2C00B4D0002318461837BD4680BD80B485B09B
:102C3C0000AFF860B9601346FB80FB68BA689A6213
:102C4C00FB68FA889A85FB68FA88DA85FB680022AB
:102C5C005A64FB68222283F84220FB681B69002B14
:102C6C0007D0FB681B68DA68FB681B6842F480724B
:102C7C00DA60FB681B685A69FB681B6842F001024A
:102C8C005A61FB681B68DA68FB681B6842F020021B
:102C9C00DA60002318461437BD4680BC704780B4F8
:102CAC0095B000AF78607B681B680C337B637B6BE3
:102CBC0053E8003F3B633B6B23F49073FB647B68EE
:102CCC001B680C33FA6C3A64FB63F96B3A6C41E8A1
:102CDC000023BB63BB6B002BE5D17B681B681433F3
:102CEC003B623B6A53E8003FFB61FB6923F0010345
:102CFC00BB647B681B681433BA6CFA62BB62B96A3A
:102D0C00FA6A41E800237B627B6A002BE5D17B6881
:102D1C001B6B012B19D17B681B680C33FB60FB68A8
:102D2C0053E8003FBB60BB6823F010037B647B68F7
:102D3C001B680C337A6CBA617B617969BA6941E8BA
:102D4C0000233B613B69002BE5D17B68202283F893
:102D5C0042207B6800221A6300BF5437BD4680BCFA
:102D6C00704780B584B000AF78607B685B6AFB60AD
:102D7C00FB680022DA85FB680022DA84F868FFF72A
:102D8C00E8FE00BF1037BD4680BD80B485B000AFF3
:102D9C0078607B6893F84130DBB2212B3ED17B68A5
:102DAC009B68B3F5805F14D17B681B69002B10D135
:102DBC007B681B6AFB60FB681B881A467B681B6878
:102DCC00C2F308025A607B681B6A9A1C7B681A6201
:102DDC0008E07B681B6A591C7A6811621A787B6858
:102DEC001B685A607B68DB8C9BB2013B9BB27A6898
:102DFC001946D184002B0FD17B681B68DA687B687D
:102E0C001B6822F08002DA607B681B68DA687B68DA
:102E1C001B6842F04002DA60002300E002231846EF
:102E2C001437BD4680BC704780B582B000AF786067
:102E3C007B681B68DA687B681B6822F04002DA60EA
:102E4C007B68202283F841207868FFF779FE002305
:102E5C0018460837BD4680BD80B58CB000AF786091
:102E6C007B6893F84230DBB2222B40F0AE807B685B
:102E7C009B68B3F5805F17D17B681B69002B13D15E
:102E8C000023FB627B689B6ABB627B681B685B6888
:102E9C009BB2C3F308039AB2BB6A1A807B689B6A25
:102EAC009A1C7B689A6226E07B689B6AFB62002313
:102EBC00BB627B689B68B3F5805F07D07B689B68BF
:102ECC00002B0AD17B681B69002B06D17B681B6821
:102EDC005B68DAB2FB6A1A7008E07B681B685B6897
:102EEC00DBB203F07F03DAB2FB6A1A707B689B6A71
:102EFC005A1C7B689A627B68DB8D9BB2013B9BB250
:102F0C007A681946D185002B5DD17B681B68DA681D
:102F1C007B681B6822F02002DA607B681B68DA6829
:102F2C007B681B6822F48072DA607B681B685A69C4
:102F3C007B681B6822F001025A617B68202283F8AF
:102F4C0042207B6800225A637B681B6B012B35D1B6
:102F5C007B6800221A637B681B680C337B617B697E
:102F6C0053E8003F3B613B6923F010037B627B68B5
:102F7C001B680C337A6A3A62FB61F9693A6A41E878
:102F8C000023BB61BB69002BE5D17B681B681B6808
:102F9C0003F01003102B0AD10023FB607B681B6825
:102FAC001B68FB607B681B685B68FB60FB687B686D
:102FBC009B8D19467868FFF7D5FD02E0786800F024
:102FCC0003FB002302E0002300E002231846303705
:102FDC00BD4680BD80B584B000AF78607B681B684F
:102FEC001B6923F440517B68DA687B681B680A43D1
:102FFC001A617B689A687B681B691A437B685B69FA
:10300C001343BB607B681B68DB6823F4B05323F06D
:10301C000C037A681268B9680B43D3607B681B6831
:10302C005B6923F440717B689A697B681B680A436F
:10303C005A617B681B682C4A934203D1FFF7BCF999
:10304C00F86002E0FFF7A4F9F860FA6813469B00F9
:10305C0013449A001A447B685B689B00B2FBF3F341
:10306C00224AA2FB03235B091901FA6813469B0051
:10307C0013449A001A447B685B689B00B2FBF3F222
:10308C001A4BA3FB02035B09642000FB03F3D31A66
:10309C001B013233154AA2FB03235B0903F0F00337
:1030AC001944FA6813469B0013449A001A447B682F
:1030BC005B689B00B2FBF3F20C4BA3FB02035B09B6
:1030CC00642000FB03F3D31A1B013233074AA2FB23
:1030DC0003235B0903F00F027B681B680A449A60A8
:1030EC0000BF1037BD4680BD003801401F85EB5135
:1030FC0080B500AF00F00CFA02461A4B1B6803F6C1
:10310C00B8339A4213D3184B1B78012B0AD1164BA8
:10311C0000221A7000F034F8144800F037FB144801
:10312C0000F09CFB00F0F4F903460E4A1360114BBF
:10313C001B78012B0DD10F4B00221A7000F098F860
:10314C000D4800F023FB0D4800F020FB084800F070
:10315C0085FB00F015FA0346002B01D100F0B2F903
:10316C0000BF80BD780100200900002060470008E6
:10317C00784700084C0100207C4700089447000861
:10318C0080B582B000AF00237B602A4800F066FB5C
:10319C00294800F0FBFA294B1B78002B01D0284B57
:1031AC0000E0284B1946284800F0F0FA274B1B6822
:1031BC000133264A1360254B1B681946244800F03E
:1031CC00E5FA00237B6015E07B68DAB2214B1B78B3
:1031DC001344D9B2204A7B6813440A461A701E4A1B
:1031EC007B6813441B7819461C4800F0CFFA7B68A7
:1031FC0001337B601A4B1B697A689A42E4D3194BF2
:10320C00154A17491848FDF753FD124B1B7801332B
:10321C00DAB2104B1A700F4B1B78632B02D90D4B83
:10322C0000221A70114B01221A7000BF0837BD46DC
:10323C0080BD00BF78470008CC4700080301002080
:10324C00044800080C480008184800087C010020BD
:10325C002C48000880010020400100204448000850
:10326C0020010020480100208400002000010020E3
:10327C0080B582B000AF00237B60264800F0EEFAE8
:10328C00254800F083FA254B1B78002B01D0244BEA
:10329C0000E0244B1946244800F078FA234B1B78A5
:1032AC00002B01D0224900E02249234B1B78002B34
:1032BC0001D0224B00E0224B1A46224800F066FA5D
:1032CC00154800F063FA204B19681F4B9A681E4B87
:1032DC001B691E4800F05AFA1D4800F057FA0023EB
:1032EC007B600AE01B4A7B6813441B7819461A481A
:1032FC0000F04CFA7B6801337B60134B1B697A68D6
:10330C009A42EFD3154B01221A7000BF0837BD4605
:10331C0080BD00BF78470008484800080301002022
:10332C00044800080C480008184800080201002056
:10333C0080480008884800080101002090480008D7
:10334C0098480008A048000804010020C048000864
:10335C00EC4800083801002044480008090000200F
:10336C0080B400AF0C4B00221A700C4B00221A7068
:10337C000B4B9B68002B03D10A4B01221A7007E000
:10338C00074B9B68B3F1804F02D1064B00221A7099
:10339C0000BFBD4680BC7047010100200201002027
:1033AC00840000200301002080B582B000AF78605B
:1033BC007B681B680A4A93420DD10A4B0A4A0021CA
:1033CC007868FDF744FD00F089F8642000F0C6F839
:1033DC00064B01221A7000BF0837BD4680BD00BFE6
:1033EC000064004038010020040100204C01002042
:1033FC0080B582B000AF78600B4800F0C7F97B68ED
:10340C001B680A4A93420BD1094B0A4A012178687E
:10341C00FDF71DFDC82000F0A1F8074B01221A7022
:10342C0000BF0837BD4680BD00490008006400405D
:10343C0038010020040100204C01002080B400AFB2
:10344C000B4B40F243521A60094B4FF404725A6012
:10345C00074B0022DA60064B00229A60044B0822CC
:10346C001A61034B00221A7500BFBD4680BC704721
:10347C002001002080B400AF114B00225A61104B88
:10348C000022DA610E4B01229A610D4B4AF6600262
:10349C001A600B4B4AF660025A60094B00229A6084
:1034AC00074B0022DA60064B00221A61044B012202
:1034BC001A62034B0E225A6200BFBD4680BC704795
:1034CC005001002080B500AF01224FF4805102481A
:1034DC00FEF762FB00BF80BD000C014080B500AF61
:1034EC004FF480510248FEF76FFB00BF80BD00BF58
:1034FC00000C014080B500AF044B1B680133034A3C
:10350C00136000F00FF800BF80BD00BF84010020E5
:10351C0080B400AF024B1B681846BD4680BC704798
:10352C008401002080B400AF0A4B1B68002B04D030
:10353C00084B1B68013B074A1360074B1B68002BA9
:10354C0004D0054B1B68013B034A136000BFBD460A
:10355C0080BC7047880100208C01002080B483B0AF
:10356C0000AF786072B600BF044A7B68136062B625
:10357C0000BF00BF0C37BD4680BC704788010020DF
:10358C0080B483B000AF72B600BF054B1B687B6084
:10359C0062B600BF7B6818460C37BD4680BC7047CE
:1035AC008801002080B582B000AF7860391D64239B
:1035BC0001220448FEF782FF012318460837BD4656
:1035CC0080BD00BFB400002080B582B000AF786031
:1035DC007B681B68084A93420AD1084B1B78194632
:1035EC00074800F0D3F8012204490648FEF7F1FF22
:1035FC0000BF0837BD4680BD003801409001002057
:10360C0028490008B4000020002310B50446C0E986
:10361C000033C0E90433836081814366C2818361D6
:10362C00194608225C3000F0ADFA0D4B246263623F
:10363C000C4BA3620C4BE3620C4B23630C4B9C4274
:10364C0006D003F16802944202D0D0339C4205D1DB
:10365C0004F15800BDE8104000F00CBB10BD00BFD9
:10366C00E1390008033A00083B3A00085F3A0008C9
:10367C0094010020024A0349034800F069B800BFD6
:10368C000C000020294500081C00002041680C4B50
:10369C0010B59942044601D000F040FFA168094BD7
:1036AC00994202D0204600F039FFE168064B99425E
:1036BC0004D02046BDE8104000F030BF10BD00BF64
:1036CC0094010020FC0100206402002010B50B4B7B
:1036DC000B4C0C4A20461A6004210022FFF794FF81
:1036EC0004F1680001220921FFF78EFF04F1D000DC
:1036FC000222BDE810401221FFF786BFCC02002049
:10370C009401002081360008014800F0B4BA00BFD3
:10371C00D5020020014800F0AFBA00BFD50200204E
:10372C0010B50446FFF7F0FF236A1BB1BDE810404B
:10373C00FFF7F0BF044B2362044B1B68002BF5D141
:10374C00FFF7C4FFF2E700BF99360008CC02002057
:10375C002DE9F8430746884614460026D4E901951E
:10376C00B9F1010905D52468002CF7D13046BDE824
:10377C00F883AB89012B07D9B5F90E30013303D08F
:10378C0029463846C04706436835E9E70FB407B504
:10379C00064904AB086853F8042B8168019300F0C8
:1037AC0093FB03B05DF804EB04B0704718000020E5
:1037BC00036A70B505460E4684680BB9FFF7B0FF77
:1037CC00636EDB0705D4A389980502D4A06D00F0C5
:1037DC0052FAA389190702D52369002B35D121464A
:1037EC00284600F079F980B34FF0FF35636EDA07A5
:1037FC0005D4A3899B0502D4A06D00F03DFA2846A0
:10380C0070BD002B04DAA2699A4217DC0A2915D084
:10381C0023685A1C22601970A36816F8011F013B1B
:10382C00A3600029EDD1002B11DA22460A2128468B
:10383C0000F013F90130D7D00A25D7E722462846E5
:10384C0000F00BF90130E7D1CEE7013EE4E7236845
:10385C005A1C22600A221A70EEE70000024B014645
:10386C001868FFF7A5BF00BF180000202DE9F7432B
:10387C001D46574B04461F680E46904627B13B6ABF
:10388C0013B93846FFF74CFFB8F1020F06D0B8F168
:10389C00010F00F29A80002DC0F29780636ED90759
:1038AC0005D4A3899A0502D4A06D00F0E4F9214651
:1038BC00384600F033FE616B41B104F14403994288
:1038CC0002D0384600F0DAF9002363630023A361C9
:1038DC006360A3891B0603D53846216900F0CEF935
:1038EC00A389B8F1020F23F44A6323F00303A381E5
:1038FC0061D001AB6A462146384600F037FEA389F9
:10390C001843A0812DBB009D284600F0FFF9064608
:10391C00002852D1DDF80090A94540D14FF0FF3579
:10392C00B4F90C3043F00202A2810022A26004F12F
:10393C0047022260226101226261626ED60704D4C2
:10394C00980502D4A06D00F097F9284603B0BDE8A5
:10395C00F083002ED8D03B6A13B93846FFF7E0FE4F
:10396C00B8F1010F08BFA389C4E9046504BF43F093
:10397C000103A381B4F90C30266013F008021ED0A9
:10398C00D90741BF00226D42A260A56158BFA56056
:10399C00626ED20701D49B0513D50025D5E74846A6
:1039AC0000F0B4F906460028B8D0A3894D4643F080
:1039BC008003A381CFE70025B2E7A946F5E7A26013
:1039CC00E6E7A06D00F058F9E7E74FF0FF35BCE7EC
:1039DC001800002010B50C46B1F90E1000F0FCF8E0
:1039EC000028ABBF636DA3891B1823F48053ACBFB5
:1039FC006365A38110BD2DE9F0411F468B890546F7
:103A0C00DB050C46164605D502230022B1F90E1033
:103A1C0000F0D0F8A389324623F48053A3812846C2
:103A2C003B46B4F90E10BDE8F04100F0E7B810B514
:103A3C000C46B1F90E1000F0BDF8431CA38915BF5C
:103A4C00606523F4805343F48053A38118BFA38192
:103A5C0010BDB1F90E1000F09DB8F8B50E46144625
:103A6C00054618B1036A0BB9FFF75AFEA369A360A8
:103A7C00A3891A0701D5236943B92146284600F0CA
:103A8C002BF818B14FF0FF373846F8BD2368226980
:103A9C00F6B2981A63693746834205DC21462846FC
:103AAC0000F03CFD0028EDD1A368013BA360236826
:103ABC005A1C22601E706269431C9A4204D0A3896E
:103ACC00DB07E1D50A2EDFD12146284600F026FD82
:103ADC000028D9D0D6E7000038B5294B0546186820
:103AEC000C4618B1036A0BB9FFF71AFEB4F90C3087
:103AFC00190722D4DA0607D409222A6043F04003BE
:103B0C004FF0FF30A38133E0580712D5616B41B100
:103B1C0004F14403994202D0284600F0AFF8002388
:103B2C006363A38923F02403A381002363602369C7
:103B3C002360A38943F00803A38123694BB9A389AC
:103B4C0003F42073B3F5007F03D02146284600F020
:103B5C0032FDB4F90C3013F001020AD00022A2603D
:103B6C0062695242A261226942B913F08000C5D148
:103B7C0038BD990758BF6269A260F4E70020F7E7E7
:103B8C001800002003460244934200D1704703F80A
:103B9C00011BF9E738B50023054D044608462B6098
:103BAC00FCF70BFD431C02D12B6803B1236038BD1D
:103BBC00D002002038B50446084611460022054DB7
:103BCC002A601A46FCF71DFD431C02D12B6803B179
:103BDC00236038BDD002002038B504460846114693
:103BEC000022054D2A601A46FCF7AEFC431C02D19C
:103BFC002B6803B1236038BDD002002038B50446D1
:103C0C00084611460022054D2A601A46FCF7B9FCFD
:103C1C00431C02D12B6803B1236038BDD0020020B5
:103C2C00014B1868704700BF1800002070B50026C3
:103C3C000C4D0D4C641BA410A64209D100F038FDAC
:103C4C0000260A4D0A4C641BA410A64205D170BD77
:103C5C0055F8043B98470136EEE755F8043B984776
:103C6C000136F2E79849000898490008984900087D
:103C7C009C490008704770477047000038B50546EE
:103C8C00002940D051F8043C0C1F002BB8BFE4189D
:103C9C0000F0E6F81C4A136833B9636014602846D8
:103CAC00BDE8384000F0E2B8A34208D920682118DA
:103CBC008B4201BF19685B6809182160EDE71A4651
:103CCC005B680BB1A342FAD911685018A0420BD112
:103CDC0020680144501883421160E0D118685B6879
:103CEC00084410605360DAE702D90C232B60D6E746
:103CFC00206821188B4201BF19685B680918216084
:103D0C0063605460CBE738BDDC020020024B0146F7
:103D1C00186800F025B800BF1800002070B50F4ED1
:103D2C000C463168054611B900F0A4FC3060214600
:103D3C00284600F09FFC431C03D14FF0FF34204673
:103D4C0070BDC41C24F00304A042F8D0211A2846EC
:103D5C0000F090FC0130F2D1EFE700BFD802002058
:103D6C002DE9F843CD1C25F0030508350C2D38BF83
:103D7C000C25002D064601DBA94204D90C23336027
:103D8C000020BDE8F883DFF8D48000F069F8D8F89B
:103D9C0000301C4644BB29463046FFF7BFFF431C8E
:103DAC00044658D1D8F800402746002F43D1002CA8
:103DBC004BD023683946304604EB030900F05AFC1B
:103DCC00814542D1216830466D1A2946FFF7A6FF7E
:103DDC0001303AD023682B442360D8F800305A685D
:103DEC0062BBC8F800700FE02268521B20D40B2A6B
:103DFC0017D96119A342256018BF5960636808BFC1
:103E0C00C8F8001062514B60304600F02FF804F1F6
:103E1C000B00231D20F00700C21A1CBF1B1AA35055
:103E2C00AFE76268A3420CBFC8F800205A60EBE70A
:103E3C0023466468AEE73C467F68B6E71A465B6883
:103E4C00A342FBD100235360DEE70C2330463360E2
:103E5C0000F00CF894E70560D6E700BFDC02002008
:103E6C000148FFF708BF00BFD40200200148FFF74C
:103E7C0003BF00BFD4020020936810B4013B002B99
:103E8C00936007DA9469A34201DB0A2902D110BCC2
:103E9C00FFF7E3BD1368581C10601970084610BC7E
:103EAC007047F8B506460F461446D518AC4201D1FA
:103EBC00002007E03A46304614F8011BFFF7DCFF00
:103ECC00431CF3D1F8BD00002DE9F04F0D4614460C
:103EDC00984606469DB018B1036A0BB9FFF720FC53
:103EEC006B6ED90705D4AB899A0502D4A86DFFF780
:103EFC00C2FEAB891B0701D52B699BB929463046FD
:103F0C00FFF7EAFD70B16B6EDC0704D54FF0FF30A4
:103F1C001DB0BDE8F08FAB899805F7D4A86DFFF7FD
:103F2C00ABFEF3E70023099320238DF829303023CF
:103F3C004FF00109CDF80C80DFF8A8818DF82A30FC
:103F4C0023469A4613F8012B0AB1252AF9D1BAEB6C
:103F5C00040B0BD05B46224629463046FFF7A1FFE7
:103F6C00013000F0A780099A5A4409929AF800305F
:103F7C00002B00F09F8000234FF0FF32CDE905238A
:103F8C000AF1010A049307938DF853301A9354469F
:103F9C00052214F8011B534800F07CFB049AD8B995
:103FAC00D10644BF20238DF85330130744BF2B2375
:103FBC008DF853309AF800302A2B15D05446002037
:103FCC004FF00A0C079A214611F8013B303B092BA4
:103FDC004BD9B0B1079214E0A0EB080309FA03F334
:103FEC001343A2460493D2E7039B191D1B6803914C
:103FFC00002BBBBF5B4242F0020207930793B8BF92
:10400C00049223782E2B0AD163782A2B32D1039B6E
:10401C0002341A1D1B68039243EAE3730593DFF81D
:10402C00C8A003225046217800F034FB38B140225E
:10403C00049BA0EB0A00824013430134049314F850
:10404C00011B062229488DF8281000F023FB0028BC
:10405C003FD0274B1BBB039B073323F007030833CD
:10406C000393099B3B4409936AE70C4601200CFB24
:10407C000232A8E700234FF00A0C194601340593CD
:10408C00204610F8012B303A092A03D9002BC6D050
:10409C000591C4E7044601230CFB0121F0E703ABB7
:1040AC0000932A463046134B04A9AFF30080074611
:1040BC00781CD6D16B6ED90705D4AB899A0502D47E
:1040CC00A86DFFF7D9FDAB895B063FF51FAF0998CB
:1040DC001EE703AB00932A463046064B04A900F0BA
:1040EC007DF8E4E762490008684900086C4900085B
:1040FC0000000000AF3E00082DE9F0471646984638
:10410C008A680B6907469342B8BF1346336091F82F
:10411C0043200C46DDF820900AB10133336023684C
:10412C00990642BF336802333360256815F00605E3
:10413C0006D104F1190AE36832689B1AAB422BDCF6
:10414C0094F843302268003B18BF0123920630D408
:10415C004146384604F14302C847013023D0236856
:10416C00226903F00603042B14BF002533684FF0BB
:10417C00000608BFE56804F11A0408BFED1A54F8EC
:10418C00123C08BF25EAE5759342C4BF9B1AED1893
:10419C00B5421AD1002008E0012352464146384668
:1041AC00C847013003D14FF0FF30BDE8F08701352F
:1041BC00C1E73020E11881F843005A1C94F84510EF
:1041CC002244023382F84310C2E7012322464146BF
:1041DC003846C8470130E6D00136D9E72DE9FF470C
:1041EC000F7E9146782F80460C469A460C9E01F124
:1041FC00430207D8622F0AD8002F00F0D380582F23
:10420C0000F0BA8004F1420684F842703AE0A7F15B
:10421C006303152BF6D801A151F823F08142000855
:10422C009542000811420008114200081142000892
:10423C001142000895420008114200081142000882
:10424C00114200081142000897430008BF420008C1
:10425C00514300081142000811420008B9430008FC
:10426C0011420008BF420008114200081142000828
:10427C005943000833681A1D1B68326004F142066A
:10428C0084F8423001239EE033682068191D3160A8
:10429C00060601D51D6803E04506FBD5B3F90050B1
:1042AC00002D03DA2D236D4284F843300A2359483C
:1042BC0011E021683368080653F8045B02D4490600
:1042CC0048BFADB26F2F336014BF0A230823514887
:1042DC00002184F843106668002EA8BF2168A660F0
:1042EC00A4BF21F0040121600DB9002E4BD016465D
:1042FC00B5FBF3F103FB1157C75D06F8017D2F46A3
:10430C00BB420D46F4D9082B0BD12368DF0708D527
:10431C00236961689942DEBF302306F8013C06F13F
:10432C00FF36921B22614B4621464046CDF800A039
:10433C0003AAFFF7E1FE01304AD14FF0FF3004B081
:10434C00BDE8F087236843F02003236078273248C8
:10435C0084F84570236831681F0651F8045B02D459
:10436C005F0648BFADB23160D90744BF43F02003AC
:10437C0023601DB11023ABE72648E9E7236823F03F
:10438C0020032360F6E71646BDE733682568181D41
:10439C00616930602E061B6801D5196002E0680661
:1043AC00FBD51980002316462361BCE73368002136
:1043BC001A1D32601E686268304600F06BF908B155
:1043CC00801B606063682361002384F84330AAE794
:1043DC003246494640462369D0470130ADD0236868
:1043EC009B0713D4E068039B9842B8BF1846A6E716
:1043FC000123324649464046D04701309DD0013515
:10440C00E36803995B1AAB42F2DCEBE7002504F19D
:10441C001906F5E77349000884490008B1F90C2026
:10442C00F8B5160705460C4654D44B68002B02DC35
:10443C000B6C002B48DDE66A002E45D0002312F4ED
:10444C0080522F68216A2B6030D0626DA389590786
:10445C0005D56368D21A636B0BB1236CD21A002397
:10446C002846E66A216AB047431CA38906D129680D
:10447C001D292BD8284A0A41D60727D4002262606E
:10448C002269D904226004D5421C01D12B6803B9DE
:10449C006065616B2F60B9B104F14403994202D09D
:1044AC002846FFF7EBFB002363630DE0012328464E
:1044BC00B0470246501CC9D12B68002BC6D01D2B0F
:1044CC0001D0162B1DD12F60002021E043F04003BA
:1044DC001BB21AE00F69002FF6D0930718BF002308
:1044EC000E6808BF4B69F61B0F608B60002EEBDD6E
:1044FC0033463A462846216AD4F828C0E0470028BB
:10450C0007DCB4F90C3043F040034FF0FF30A381CB
:10451C00F8BD0744361AE9E7FEFFBFDF38B50B6973
:10452C0005460C4613B90025284638BD18B1036A58
:10453C000BB9FFF7F5F8B4F90C30002BF3D0626E21
:10454C00D00704D4990502D4A06DFFF794FB28463C
:10455C002146FFF763FF636E0546DA07E4D4A389AF
:10456C009B05E1D4A06DFFF787FBDDE770B50C462A
:10457C00B1F90E10154600291E4696B00CDAA38927
:10458C00002113F0800F14BF40234FF480630020F0
:10459C0031602B6016B070BD6A4600F049F80028F7
:1045AC00EDDB019901F47041A1F5005359425941D9
:1045BC004FF48063EBE78B89F7B59D0706460C46F5
:1045CC0007D504F14703236023610123636103B022
:1045DC00F0BD6A4601ABFFF7C9FF009F054639469F
:1045EC003046FFF7BDFB48B9B4F90C309A05EED450
:1045FC0023F0030343F00203A381E2E7A389C4E998
:10460C00040743F08003A381019B20605BB130461B
:10461C00B4F90E1000F01EF828B1A38923F003039F
:10462C0043F00103A381A3891D43A581CFE70000BB
:10463C0038B50023064D0446084611462B60FBF79F
:10464C00C7FF431C02D12B6803B1236038BD00BFE8
:10465C00D002002038B50023054D044608462B60D7
:10466C00FBF7C5FF431C02D12B6803B1236038BD97
:10467C00D002002038B50023054D044608462B60B7
:10468C00FBF7CCFF431C02D12B6803B1236038BD70
:10469C00D0020020034610B5C9B20244934218461A
:1046AC0001D1002003E0047801338C42F6D110BD17
:1046BC00F8B500BFF8BC08BC9E467047F8B500BF03
:0846CC00F8BC08BC9E467047D3
:1046D4000D0A7072696E74662075736520494F4EB9
:1046E4004246202E2E0000000D0A68616C5F636153
:1046F4006E5F66696C74657220636F6E66696720AD
:104704002E2E00000D0A68616C5F63616E5F737426
:10471400617274206572726F7220212100000000A2
:104724000D0A68616C5F63616E5F737461727465B6
:10473400642E2E000D0A72657365742E2E2E0000F1
:104744000D0A48656C6C6F203A20323032342D30BB
:10475400392E32312D31203A202564000D0A63614F
:104764006E2074782070726F636573736564202E95
:104774002E2000000D0000000D0A63616E20727887
:104784002070726F636573736564202E2E200000A1
:104794000D0A3E3E3D3D3D3D3D3D3D3D3D3D3D3DA6
:1047A4003D3D3D3D3D3D3D3D3D3D3D3D3D3D3D3D35
:1047B4003D3D3D3D3D3D3D3D3D3D3D3D3D3D3D3D25
:1047C4003D3D454E443C3C000D0A3E3E4245474972
:1047D4004E3D3D3D3D3D3D3D3D3D3D3D3D3D3D3DF4
:1047E4003D3D3D3D3D3D3D3D3D3D3D3D3D3D3D3DF5
:1047F4003D3D3D3D3D3D3D3D3D3D3D3D3D3C3C0024
:104804004E6F726D616C00004C6F6F706261636B10
:10481400000000000D0A43414E204F70204D6F648C
:1048240065203A20257300000D0A3E3E2043414E88
:1048340020547820446174615B25645D203A200033
:10484400256420000D0A3E3E2D2D2D2D2D2D2D2DC0
:104854002D2D2D2D2D2D2D2D2D2D2D2D2D2D2D2D84
:104864002D2D2D2D2D2D2D2D2D2D2D2D2D2D2D2D74
:104874002D2D2D2D2D2D3C3C00000000333262697E
:104884007400000031366269740000004D61736B7E
:10489400000000004C697374000000000D0A4341DD
:1048A4004E2046696C746572696E67204D6F64654D
:1048B400203A202573202573000000000D0A53744C
:1048C400644944203A2030782530346C782C2049CF
:1048D4004445203A203078256C642C20444C4320F5
:1048E4003A20256C640000000D0A3E3E2043414EF0
:1048F4002052782044617461203A20000D0A4361FB
:104904006E2052783120696E740000000D0A434114
:104914004E204572726F725F48616E646C657220DE
:10492400212121000D0A72785F6461746131203A9B
:1049340020256300000000000000000001020304C1
:10494400060708090000000001020304020304052D
:10495400060708090A0B0C0D0E0F10100102232D77
:10496400302B2000686C4C00656667454647003074
:1049740031323334353637383941424344454600C1
:1049840030313233343536373839616263646566C1
:04499400000000001F
:0449980031010008E1
:04499C000D01000801
:1049A00000127A0010000000010100000000000069
:1049B00003000000940100201C0000200000000003
:1049C00094010020FC01002064020020000000008F
:1049D00000000000000000000000000000000000D7
:1049E00000000000000000000000000000000000C7
:1049F00000000000000000000000000000000000B7
:084A00000000000000000000AE
:040000050800079D4B
:00000001FF
